{
	"daulat/arrayContract.sol": {
		"ArrayContract": {
			"abi": [
				{
					"inputs": [
						{
							"internalType": "address",
							"name": "",
							"type": "address"
						}
					],
					"name": "addressToAmount",
					"outputs": [
						{
							"internalType": "uint256",
							"name": "",
							"type": "uint256"
						}
					],
					"stateMutability": "view",
					"type": "function"
				},
				{
					"inputs": [
						{
							"internalType": "uint256",
							"name": "",
							"type": "uint256"
						}
					],
					"name": "arr",
					"outputs": [
						{
							"internalType": "uint256",
							"name": "",
							"type": "uint256"
						}
					],
					"stateMutability": "view",
					"type": "function"
				},
				{
					"inputs": [],
					"name": "example",
					"outputs": [],
					"stateMutability": "view",
					"type": "function"
				},
				{
					"inputs": [
						{
							"internalType": "address[]",
							"name": "_users",
							"type": "address[]"
						}
					],
					"name": "getBalancesOfMultipleUsers",
					"outputs": [
						{
							"internalType": "uint256[]",
							"name": "",
							"type": "uint256[]"
						}
					],
					"stateMutability": "view",
					"type": "function"
				}
			],
			"devdoc": {
				"kind": "dev",
				"methods": {},
				"version": 1
			},
			"evm": {
				"assembly": "    /* \"daulat/arrayContract.sol\":62:689  contract ArrayContract {... */\n  mstore(0x40, 0x80)\n  callvalue\n  dup1\n  iszero\n  tag_1\n  jumpi\n  0x00\n  dup1\n  revert\ntag_1:\n  pop\n  dataSize(sub_0)\n  dup1\n  dataOffset(sub_0)\n  0x00\n  codecopy\n  0x00\n  return\nstop\n\nsub_0: assembly {\n        /* \"daulat/arrayContract.sol\":62:689  contract ArrayContract {... */\n      mstore(0x40, 0x80)\n      callvalue\n      dup1\n      iszero\n      tag_1\n      jumpi\n      0x00\n      dup1\n      revert\n    tag_1:\n      pop\n      jumpi(tag_2, lt(calldatasize, 0x04))\n      shr(0xe0, calldataload(0x00))\n      dup1\n      0x3c7e7d28\n      eq\n      tag_3\n      jumpi\n      dup1\n      0x54353f2f\n      eq\n      tag_4\n      jumpi\n      dup1\n      0x71e5ee5f\n      eq\n      tag_5\n      jumpi\n      dup1\n      0xc6833799\n      eq\n      tag_6\n      jumpi\n    tag_2:\n      0x00\n      dup1\n      revert\n        /* \"daulat/arrayContract.sol\":112:162  mapping(address => uint256) public addressToAmount */\n    tag_3:\n      tag_7\n      0x04\n      dup1\n      calldatasize\n      sub\n      dup2\n      add\n      swap1\n      tag_8\n      swap2\n      swap1\n      tag_9\n      jump\t// in\n    tag_8:\n      tag_10\n      jump\t// in\n    tag_7:\n      mload(0x40)\n      tag_11\n      swap2\n      swap1\n      tag_12\n      jump\t// in\n    tag_11:\n      mload(0x40)\n      dup1\n      swap2\n      sub\n      swap1\n      return\n        /* \"daulat/arrayContract.sol\":168:329  function example() view external{... */\n    tag_4:\n      tag_13\n      tag_14\n      jump\t// in\n    tag_13:\n      stop\n        /* \"daulat/arrayContract.sol\":91:108  uint[] public arr */\n    tag_5:\n      tag_15\n      0x04\n      dup1\n      calldatasize\n      sub\n      dup2\n      add\n      swap1\n      tag_16\n      swap2\n      swap1\n      tag_17\n      jump\t// in\n    tag_16:\n      tag_18\n      jump\t// in\n    tag_15:\n      mload(0x40)\n      tag_19\n      swap2\n      swap1\n      tag_12\n      jump\t// in\n    tag_19:\n      mload(0x40)\n      dup1\n      swap2\n      sub\n      swap1\n      return\n        /* \"daulat/arrayContract.sol\":365:677  function getBalancesOfMultipleUsers (address[] memory _users) view external returns(uint256[] memory){... */\n    tag_6:\n      tag_20\n      0x04\n      dup1\n      calldatasize\n      sub\n      dup2\n      add\n      swap1\n      tag_21\n      swap2\n      swap1\n      tag_22\n      jump\t// in\n    tag_21:\n      tag_23\n      jump\t// in\n    tag_20:\n      mload(0x40)\n      tag_24\n      swap2\n      swap1\n      tag_25\n      jump\t// in\n    tag_24:\n      mload(0x40)\n      dup1\n      swap2\n      sub\n      swap1\n      return\n        /* \"daulat/arrayContract.sol\":112:162  mapping(address => uint256) public addressToAmount */\n    tag_10:\n      mstore(0x20, 0x01)\n      dup1\n      0x00\n      mstore\n      keccak256(0x00, 0x40)\n      0x00\n      swap2\n      pop\n      swap1\n      pop\n      sload\n      dup2\n      jump\t// out\n        /* \"daulat/arrayContract.sol\":168:329  function example() view external{... */\n    tag_14:\n        /* \"daulat/arrayContract.sol\":208:226  uint256[] memory a */\n      0x00\n        /* \"daulat/arrayContract.sol\":243:244  5 */\n      0x05\n        /* \"daulat/arrayContract.sol\":229:245  new uint256[](5) */\n      0xffffffffffffffff\n      dup2\n      gt\n      iszero\n      tag_27\n      jumpi\n      tag_28\n      tag_29\n      jump\t// in\n    tag_28:\n    tag_27:\n      mload(0x40)\n      swap1\n      dup1\n      dup3\n      mstore\n      dup1\n      0x20\n      mul\n      0x20\n      add\n      dup3\n      add\n      0x40\n      mstore\n      dup1\n      iszero\n      tag_30\n      jumpi\n      dup2\n      0x20\n      add\n      0x20\n      dup3\n      mul\n      dup1\n      calldatasize\n      dup4\n      calldatacopy\n      dup1\n      dup3\n      add\n      swap2\n      pop\n      pop\n      swap1\n      pop\n    tag_30:\n      pop\n        /* \"daulat/arrayContract.sol\":208:245  uint256[] memory a = new uint256[](5) */\n      swap1\n      pop\n        /* \"daulat/arrayContract.sol\":264:265  1 */\n      0x01\n        /* \"daulat/arrayContract.sol\":257:258  a */\n      dup2\n        /* \"daulat/arrayContract.sol\":259:260  0 */\n      0x00\n        /* \"daulat/arrayContract.sol\":257:261  a[0] */\n      dup2\n      mload\n      dup2\n      lt\n      tag_31\n      jumpi\n      tag_32\n      tag_33\n      jump\t// in\n    tag_32:\n    tag_31:\n      0x20\n      mul\n      0x20\n      add\n      add\n        /* \"daulat/arrayContract.sol\":257:265  a[0] = 1 */\n      dup2\n      dup2\n      mstore\n      pop\n      pop\n        /* \"daulat/arrayContract.sol\":278:279  2 */\n      0x02\n        /* \"daulat/arrayContract.sol\":272:273  a */\n      dup2\n        /* \"daulat/arrayContract.sol\":274:275  1 */\n      0x01\n        /* \"daulat/arrayContract.sol\":272:276  a[1] */\n      dup2\n      mload\n      dup2\n      lt\n      tag_34\n      jumpi\n      tag_35\n      tag_33\n      jump\t// in\n    tag_35:\n    tag_34:\n      0x20\n      mul\n      0x20\n      add\n      add\n        /* \"daulat/arrayContract.sol\":272:279  a[1]= 2 */\n      dup2\n      dup2\n      mstore\n      pop\n      pop\n        /* \"daulat/arrayContract.sol\":293:294  3 */\n      0x03\n        /* \"daulat/arrayContract.sol\":286:287  a */\n      dup2\n        /* \"daulat/arrayContract.sol\":288:289  2 */\n      0x02\n        /* \"daulat/arrayContract.sol\":286:290  a[2] */\n      dup2\n      mload\n      dup2\n      lt\n      tag_36\n      jumpi\n      tag_37\n      tag_33\n      jump\t// in\n    tag_37:\n    tag_36:\n      0x20\n      mul\n      0x20\n      add\n      add\n        /* \"daulat/arrayContract.sol\":286:294  a[2] = 3 */\n      dup2\n      dup2\n      mstore\n      pop\n      pop\n        /* \"daulat/arrayContract.sol\":308:309  4 */\n      0x04\n        /* \"daulat/arrayContract.sol\":301:302  a */\n      dup2\n        /* \"daulat/arrayContract.sol\":303:304  3 */\n      0x03\n        /* \"daulat/arrayContract.sol\":301:305  a[3] */\n      dup2\n      mload\n      dup2\n      lt\n      tag_38\n      jumpi\n      tag_39\n      tag_33\n      jump\t// in\n    tag_39:\n    tag_38:\n      0x20\n      mul\n      0x20\n      add\n      add\n        /* \"daulat/arrayContract.sol\":301:309  a[3] = 4 */\n      dup2\n      dup2\n      mstore\n      pop\n      pop\n        /* \"daulat/arrayContract.sol\":323:324  5 */\n      0x05\n        /* \"daulat/arrayContract.sol\":316:317  a */\n      dup2\n        /* \"daulat/arrayContract.sol\":318:319  4 */\n      0x04\n        /* \"daulat/arrayContract.sol\":316:320  a[4] */\n      dup2\n      mload\n      dup2\n      lt\n      tag_40\n      jumpi\n      tag_41\n      tag_33\n      jump\t// in\n    tag_41:\n    tag_40:\n      0x20\n      mul\n      0x20\n      add\n      add\n        /* \"daulat/arrayContract.sol\":316:324  a[4] = 5 */\n      dup2\n      dup2\n      mstore\n      pop\n      pop\n        /* \"daulat/arrayContract.sol\":200:329  {... */\n      pop\n        /* \"daulat/arrayContract.sol\":168:329  function example() view external{... */\n      jump\t// out\n        /* \"daulat/arrayContract.sol\":91:108  uint[] public arr */\n    tag_18:\n      0x00\n      dup2\n      dup2\n      sload\n      dup2\n      lt\n      tag_42\n      jumpi\n      0x00\n      dup1\n      revert\n    tag_42:\n      swap1\n      0x00\n      mstore\n      keccak256(0x00, 0x20)\n      add\n      0x00\n      swap2\n      pop\n      swap1\n      pop\n      sload\n      dup2\n      jump\t// out\n        /* \"daulat/arrayContract.sol\":365:677  function getBalancesOfMultipleUsers (address[] memory _users) view external returns(uint256[] memory){... */\n    tag_23:\n        /* \"daulat/arrayContract.sol\":449:465  uint256[] memory */\n      0x60\n        /* \"daulat/arrayContract.sol\":473:498  uint256[] memory balances */\n      0x00\n        /* \"daulat/arrayContract.sol\":515:521  _users */\n      dup3\n        /* \"daulat/arrayContract.sol\":515:528  _users.length */\n      mload\n        /* \"daulat/arrayContract.sol\":501:529  new uint256[](_users.length) */\n      0xffffffffffffffff\n      dup2\n      gt\n      iszero\n      tag_45\n      jumpi\n      tag_46\n      tag_29\n      jump\t// in\n    tag_46:\n    tag_45:\n      mload(0x40)\n      swap1\n      dup1\n      dup3\n      mstore\n      dup1\n      0x20\n      mul\n      0x20\n      add\n      dup3\n      add\n      0x40\n      mstore\n      dup1\n      iszero\n      tag_47\n      jumpi\n      dup2\n      0x20\n      add\n      0x20\n      dup3\n      mul\n      dup1\n      calldatasize\n      dup4\n      calldatacopy\n      dup1\n      dup3\n      add\n      swap2\n      pop\n      pop\n      swap1\n      pop\n    tag_47:\n      pop\n        /* \"daulat/arrayContract.sol\":473:529  uint256[] memory balances = new uint256[](_users.length) */\n      swap1\n      pop\n        /* \"daulat/arrayContract.sol\":540:549  uint256 i */\n      0x00\n        /* \"daulat/arrayContract.sol\":557:563  _users */\n      dup4\n        /* \"daulat/arrayContract.sol\":557:570  _users.length */\n      mload\n        /* \"daulat/arrayContract.sol\":555:556  i */\n      dup2\n        /* \"daulat/arrayContract.sol\":555:570  i<_users.length */\n      lt\n        /* \"daulat/arrayContract.sol\":536:667  for(uint256 i = 0; i<_users.length; i++){... */\n      iszero\n      tag_49\n      jumpi\n        /* \"daulat/arrayContract.sol\":602:617  addressToAmount */\n      0x01\n        /* \"daulat/arrayContract.sol\":602:628  addressToAmount[_users[i]] */\n      0x00\n        /* \"daulat/arrayContract.sol\":618:624  _users */\n      dup6\n        /* \"daulat/arrayContract.sol\":625:626  i */\n      dup4\n        /* \"daulat/arrayContract.sol\":618:627  _users[i] */\n      dup2\n      mload\n      dup2\n      lt\n      tag_51\n      jumpi\n      tag_52\n      tag_33\n      jump\t// in\n    tag_52:\n    tag_51:\n      0x20\n      mul\n      0x20\n      add\n      add\n      mload\n        /* \"daulat/arrayContract.sol\":602:628  addressToAmount[_users[i]] */\n      0xffffffffffffffffffffffffffffffffffffffff\n      and\n      0xffffffffffffffffffffffffffffffffffffffff\n      and\n      dup2\n      mstore\n      0x20\n      add\n      swap1\n      dup2\n      mstore\n      0x20\n      add\n      0x00\n      keccak256\n      sload\n        /* \"daulat/arrayContract.sol\":588:596  balances */\n      dup3\n        /* \"daulat/arrayContract.sol\":597:598  i */\n      dup3\n        /* \"daulat/arrayContract.sol\":588:599  balances[i] */\n      dup2\n      mload\n      dup2\n      lt\n      tag_53\n      jumpi\n      tag_54\n      tag_33\n      jump\t// in\n    tag_54:\n    tag_53:\n      0x20\n      mul\n      0x20\n      add\n      add\n        /* \"daulat/arrayContract.sol\":588:628  balances[i] = addressToAmount[_users[i]] */\n      dup2\n      dup2\n      mstore\n      pop\n      pop\n        /* \"daulat/arrayContract.sol\":647:655  balances */\n      dup2\n        /* \"daulat/arrayContract.sol\":640:655  return balances */\n      swap3\n      pop\n      pop\n      pop\n      jump(tag_44)\n        /* \"daulat/arrayContract.sol\":536:667  for(uint256 i = 0; i<_users.length; i++){... */\n    tag_49:\n      pop\n        /* \"daulat/arrayContract.sol\":466:677  {... */\n      pop\n        /* \"daulat/arrayContract.sol\":365:677  function getBalancesOfMultipleUsers (address[] memory _users) view external returns(uint256[] memory){... */\n    tag_44:\n      swap2\n      swap1\n      pop\n      jump\t// out\n        /* \"#utility.yul\":7:82   */\n    tag_57:\n        /* \"#utility.yul\":40:46   */\n      0x00\n        /* \"#utility.yul\":73:75   */\n      0x40\n        /* \"#utility.yul\":67:76   */\n      mload\n        /* \"#utility.yul\":57:76   */\n      swap1\n      pop\n        /* \"#utility.yul\":7:82   */\n      swap1\n      jump\t// out\n        /* \"#utility.yul\":88:205   */\n    tag_58:\n        /* \"#utility.yul\":197:198   */\n      0x00\n        /* \"#utility.yul\":194:195   */\n      dup1\n        /* \"#utility.yul\":187:199   */\n      revert\n        /* \"#utility.yul\":211:328   */\n    tag_59:\n        /* \"#utility.yul\":320:321   */\n      0x00\n        /* \"#utility.yul\":317:318   */\n      dup1\n        /* \"#utility.yul\":310:322   */\n      revert\n        /* \"#utility.yul\":334:460   */\n    tag_60:\n        /* \"#utility.yul\":371:378   */\n      0x00\n        /* \"#utility.yul\":411:453   */\n      0xffffffffffffffffffffffffffffffffffffffff\n        /* \"#utility.yul\":404:409   */\n      dup3\n        /* \"#utility.yul\":400:454   */\n      and\n        /* \"#utility.yul\":389:454   */\n      swap1\n      pop\n        /* \"#utility.yul\":334:460   */\n      swap2\n      swap1\n      pop\n      jump\t// out\n        /* \"#utility.yul\":466:562   */\n    tag_61:\n        /* \"#utility.yul\":503:510   */\n      0x00\n        /* \"#utility.yul\":532:556   */\n      tag_90\n        /* \"#utility.yul\":550:555   */\n      dup3\n        /* \"#utility.yul\":532:556   */\n      tag_60\n      jump\t// in\n    tag_90:\n        /* \"#utility.yul\":521:556   */\n      swap1\n      pop\n        /* \"#utility.yul\":466:562   */\n      swap2\n      swap1\n      pop\n      jump\t// out\n        /* \"#utility.yul\":568:690   */\n    tag_62:\n        /* \"#utility.yul\":641:665   */\n      tag_92\n        /* \"#utility.yul\":659:664   */\n      dup2\n        /* \"#utility.yul\":641:665   */\n      tag_61\n      jump\t// in\n    tag_92:\n        /* \"#utility.yul\":634:639   */\n      dup2\n        /* \"#utility.yul\":631:666   */\n      eq\n        /* \"#utility.yul\":621:684   */\n      tag_93\n      jumpi\n        /* \"#utility.yul\":680:681   */\n      0x00\n        /* \"#utility.yul\":677:678   */\n      dup1\n        /* \"#utility.yul\":670:682   */\n      revert\n        /* \"#utility.yul\":621:684   */\n    tag_93:\n        /* \"#utility.yul\":568:690   */\n      pop\n      jump\t// out\n        /* \"#utility.yul\":696:835   */\n    tag_63:\n        /* \"#utility.yul\":742:747   */\n      0x00\n        /* \"#utility.yul\":780:786   */\n      dup2\n        /* \"#utility.yul\":767:787   */\n      calldataload\n        /* \"#utility.yul\":758:787   */\n      swap1\n      pop\n        /* \"#utility.yul\":796:829   */\n      tag_95\n        /* \"#utility.yul\":823:828   */\n      dup2\n        /* \"#utility.yul\":796:829   */\n      tag_62\n      jump\t// in\n    tag_95:\n        /* \"#utility.yul\":696:835   */\n      swap3\n      swap2\n      pop\n      pop\n      jump\t// out\n        /* \"#utility.yul\":841:1170   */\n    tag_9:\n        /* \"#utility.yul\":900:906   */\n      0x00\n        /* \"#utility.yul\":949:951   */\n      0x20\n        /* \"#utility.yul\":937:946   */\n      dup3\n        /* \"#utility.yul\":928:935   */\n      dup5\n        /* \"#utility.yul\":924:947   */\n      sub\n        /* \"#utility.yul\":920:952   */\n      slt\n        /* \"#utility.yul\":917:1036   */\n      iszero\n      tag_97\n      jumpi\n        /* \"#utility.yul\":955:1034   */\n      tag_98\n      tag_58\n      jump\t// in\n    tag_98:\n        /* \"#utility.yul\":917:1036   */\n    tag_97:\n        /* \"#utility.yul\":1075:1076   */\n      0x00\n        /* \"#utility.yul\":1100:1153   */\n      tag_99\n        /* \"#utility.yul\":1145:1152   */\n      dup5\n        /* \"#utility.yul\":1136:1142   */\n      dup3\n        /* \"#utility.yul\":1125:1134   */\n      dup6\n        /* \"#utility.yul\":1121:1143   */\n      add\n        /* \"#utility.yul\":1100:1153   */\n      tag_63\n      jump\t// in\n    tag_99:\n        /* \"#utility.yul\":1090:1153   */\n      swap2\n      pop\n        /* \"#utility.yul\":1046:1163   */\n      pop\n        /* \"#utility.yul\":841:1170   */\n      swap3\n      swap2\n      pop\n      pop\n      jump\t// out\n        /* \"#utility.yul\":1176:1253   */\n    tag_64:\n        /* \"#utility.yul\":1213:1220   */\n      0x00\n        /* \"#utility.yul\":1242:1247   */\n      dup2\n        /* \"#utility.yul\":1231:1247   */\n      swap1\n      pop\n        /* \"#utility.yul\":1176:1253   */\n      swap2\n      swap1\n      pop\n      jump\t// out\n        /* \"#utility.yul\":1259:1377   */\n    tag_65:\n        /* \"#utility.yul\":1346:1370   */\n      tag_102\n        /* \"#utility.yul\":1364:1369   */\n      dup2\n        /* \"#utility.yul\":1346:1370   */\n      tag_64\n      jump\t// in\n    tag_102:\n        /* \"#utility.yul\":1341:1344   */\n      dup3\n        /* \"#utility.yul\":1334:1371   */\n      mstore\n        /* \"#utility.yul\":1259:1377   */\n      pop\n      pop\n      jump\t// out\n        /* \"#utility.yul\":1383:1605   */\n    tag_12:\n        /* \"#utility.yul\":1476:1480   */\n      0x00\n        /* \"#utility.yul\":1514:1516   */\n      0x20\n        /* \"#utility.yul\":1503:1512   */\n      dup3\n        /* \"#utility.yul\":1499:1517   */\n      add\n        /* \"#utility.yul\":1491:1517   */\n      swap1\n      pop\n        /* \"#utility.yul\":1527:1598   */\n      tag_104\n        /* \"#utility.yul\":1595:1596   */\n      0x00\n        /* \"#utility.yul\":1584:1593   */\n      dup4\n        /* \"#utility.yul\":1580:1597   */\n      add\n        /* \"#utility.yul\":1571:1577   */\n      dup5\n        /* \"#utility.yul\":1527:1598   */\n      tag_65\n      jump\t// in\n    tag_104:\n        /* \"#utility.yul\":1383:1605   */\n      swap3\n      swap2\n      pop\n      pop\n      jump\t// out\n        /* \"#utility.yul\":1611:1733   */\n    tag_66:\n        /* \"#utility.yul\":1684:1708   */\n      tag_106\n        /* \"#utility.yul\":1702:1707   */\n      dup2\n        /* \"#utility.yul\":1684:1708   */\n      tag_64\n      jump\t// in\n    tag_106:\n        /* \"#utility.yul\":1677:1682   */\n      dup2\n        /* \"#utility.yul\":1674:1709   */\n      eq\n        /* \"#utility.yul\":1664:1727   */\n      tag_107\n      jumpi\n        /* \"#utility.yul\":1723:1724   */\n      0x00\n        /* \"#utility.yul\":1720:1721   */\n      dup1\n        /* \"#utility.yul\":1713:1725   */\n      revert\n        /* \"#utility.yul\":1664:1727   */\n    tag_107:\n        /* \"#utility.yul\":1611:1733   */\n      pop\n      jump\t// out\n        /* \"#utility.yul\":1739:1878   */\n    tag_67:\n        /* \"#utility.yul\":1785:1790   */\n      0x00\n        /* \"#utility.yul\":1823:1829   */\n      dup2\n        /* \"#utility.yul\":1810:1830   */\n      calldataload\n        /* \"#utility.yul\":1801:1830   */\n      swap1\n      pop\n        /* \"#utility.yul\":1839:1872   */\n      tag_109\n        /* \"#utility.yul\":1866:1871   */\n      dup2\n        /* \"#utility.yul\":1839:1872   */\n      tag_66\n      jump\t// in\n    tag_109:\n        /* \"#utility.yul\":1739:1878   */\n      swap3\n      swap2\n      pop\n      pop\n      jump\t// out\n        /* \"#utility.yul\":1884:2213   */\n    tag_17:\n        /* \"#utility.yul\":1943:1949   */\n      0x00\n        /* \"#utility.yul\":1992:1994   */\n      0x20\n        /* \"#utility.yul\":1980:1989   */\n      dup3\n        /* \"#utility.yul\":1971:1978   */\n      dup5\n        /* \"#utility.yul\":1967:1990   */\n      sub\n        /* \"#utility.yul\":1963:1995   */\n      slt\n        /* \"#utility.yul\":1960:2079   */\n      iszero\n      tag_111\n      jumpi\n        /* \"#utility.yul\":1998:2077   */\n      tag_112\n      tag_58\n      jump\t// in\n    tag_112:\n        /* \"#utility.yul\":1960:2079   */\n    tag_111:\n        /* \"#utility.yul\":2118:2119   */\n      0x00\n        /* \"#utility.yul\":2143:2196   */\n      tag_113\n        /* \"#utility.yul\":2188:2195   */\n      dup5\n        /* \"#utility.yul\":2179:2185   */\n      dup3\n        /* \"#utility.yul\":2168:2177   */\n      dup6\n        /* \"#utility.yul\":2164:2186   */\n      add\n        /* \"#utility.yul\":2143:2196   */\n      tag_67\n      jump\t// in\n    tag_113:\n        /* \"#utility.yul\":2133:2196   */\n      swap2\n      pop\n        /* \"#utility.yul\":2089:2206   */\n      pop\n        /* \"#utility.yul\":1884:2213   */\n      swap3\n      swap2\n      pop\n      pop\n      jump\t// out\n        /* \"#utility.yul\":2219:2336   */\n    tag_68:\n        /* \"#utility.yul\":2328:2329   */\n      0x00\n        /* \"#utility.yul\":2325:2326   */\n      dup1\n        /* \"#utility.yul\":2318:2330   */\n      revert\n        /* \"#utility.yul\":2342:2444   */\n    tag_69:\n        /* \"#utility.yul\":2383:2389   */\n      0x00\n        /* \"#utility.yul\":2434:2436   */\n      0x1f\n        /* \"#utility.yul\":2430:2437   */\n      not\n        /* \"#utility.yul\":2425:2427   */\n      0x1f\n        /* \"#utility.yul\":2418:2423   */\n      dup4\n        /* \"#utility.yul\":2414:2428   */\n      add\n        /* \"#utility.yul\":2410:2438   */\n      and\n        /* \"#utility.yul\":2400:2438   */\n      swap1\n      pop\n        /* \"#utility.yul\":2342:2444   */\n      swap2\n      swap1\n      pop\n      jump\t// out\n        /* \"#utility.yul\":2450:2630   */\n    tag_29:\n        /* \"#utility.yul\":2498:2575   */\n      0x4e487b7100000000000000000000000000000000000000000000000000000000\n        /* \"#utility.yul\":2495:2496   */\n      0x00\n        /* \"#utility.yul\":2488:2576   */\n      mstore\n        /* \"#utility.yul\":2595:2599   */\n      0x41\n        /* \"#utility.yul\":2592:2593   */\n      0x04\n        /* \"#utility.yul\":2585:2600   */\n      mstore\n        /* \"#utility.yul\":2619:2623   */\n      0x24\n        /* \"#utility.yul\":2616:2617   */\n      0x00\n        /* \"#utility.yul\":2609:2624   */\n      revert\n        /* \"#utility.yul\":2636:2917   */\n    tag_70:\n        /* \"#utility.yul\":2719:2746   */\n      tag_118\n        /* \"#utility.yul\":2741:2745   */\n      dup3\n        /* \"#utility.yul\":2719:2746   */\n      tag_69\n      jump\t// in\n    tag_118:\n        /* \"#utility.yul\":2711:2717   */\n      dup2\n        /* \"#utility.yul\":2707:2747   */\n      add\n        /* \"#utility.yul\":2849:2855   */\n      dup2\n        /* \"#utility.yul\":2837:2847   */\n      dup2\n        /* \"#utility.yul\":2834:2856   */\n      lt\n        /* \"#utility.yul\":2813:2831   */\n      0xffffffffffffffff\n        /* \"#utility.yul\":2801:2811   */\n      dup3\n        /* \"#utility.yul\":2798:2832   */\n      gt\n        /* \"#utility.yul\":2795:2857   */\n      or\n        /* \"#utility.yul\":2792:2880   */\n      iszero\n      tag_119\n      jumpi\n        /* \"#utility.yul\":2860:2878   */\n      tag_120\n      tag_29\n      jump\t// in\n    tag_120:\n        /* \"#utility.yul\":2792:2880   */\n    tag_119:\n        /* \"#utility.yul\":2900:2910   */\n      dup1\n        /* \"#utility.yul\":2896:2898   */\n      0x40\n        /* \"#utility.yul\":2889:2911   */\n      mstore\n        /* \"#utility.yul\":2679:2917   */\n      pop\n        /* \"#utility.yul\":2636:2917   */\n      pop\n      pop\n      jump\t// out\n        /* \"#utility.yul\":2923:3052   */\n    tag_71:\n        /* \"#utility.yul\":2957:2963   */\n      0x00\n        /* \"#utility.yul\":2984:3004   */\n      tag_122\n      tag_57\n      jump\t// in\n    tag_122:\n        /* \"#utility.yul\":2974:3004   */\n      swap1\n      pop\n        /* \"#utility.yul\":3013:3046   */\n      tag_123\n        /* \"#utility.yul\":3041:3045   */\n      dup3\n        /* \"#utility.yul\":3033:3039   */\n      dup3\n        /* \"#utility.yul\":3013:3046   */\n      tag_70\n      jump\t// in\n    tag_123:\n        /* \"#utility.yul\":2923:3052   */\n      swap2\n      swap1\n      pop\n      jump\t// out\n        /* \"#utility.yul\":3058:3369   */\n    tag_72:\n        /* \"#utility.yul\":3135:3139   */\n      0x00\n        /* \"#utility.yul\":3225:3243   */\n      0xffffffffffffffff\n        /* \"#utility.yul\":3217:3223   */\n      dup3\n        /* \"#utility.yul\":3214:3244   */\n      gt\n        /* \"#utility.yul\":3211:3267   */\n      iszero\n      tag_125\n      jumpi\n        /* \"#utility.yul\":3247:3265   */\n      tag_126\n      tag_29\n      jump\t// in\n    tag_126:\n        /* \"#utility.yul\":3211:3267   */\n    tag_125:\n        /* \"#utility.yul\":3297:3301   */\n      0x20\n        /* \"#utility.yul\":3289:3295   */\n      dup3\n        /* \"#utility.yul\":3285:3302   */\n      mul\n        /* \"#utility.yul\":3277:3302   */\n      swap1\n      pop\n        /* \"#utility.yul\":3357:3361   */\n      0x20\n        /* \"#utility.yul\":3351:3355   */\n      dup2\n        /* \"#utility.yul\":3347:3362   */\n      add\n        /* \"#utility.yul\":3339:3362   */\n      swap1\n      pop\n        /* \"#utility.yul\":3058:3369   */\n      swap2\n      swap1\n      pop\n      jump\t// out\n        /* \"#utility.yul\":3375:3492   */\n    tag_73:\n        /* \"#utility.yul\":3484:3485   */\n      0x00\n        /* \"#utility.yul\":3481:3482   */\n      dup1\n        /* \"#utility.yul\":3474:3486   */\n      revert\n        /* \"#utility.yul\":3515:4225   */\n    tag_74:\n        /* \"#utility.yul\":3611:3616   */\n      0x00\n        /* \"#utility.yul\":3636:3717   */\n      tag_129\n        /* \"#utility.yul\":3652:3716   */\n      tag_130\n        /* \"#utility.yul\":3709:3715   */\n      dup5\n        /* \"#utility.yul\":3652:3716   */\n      tag_72\n      jump\t// in\n    tag_130:\n        /* \"#utility.yul\":3636:3717   */\n      tag_71\n      jump\t// in\n    tag_129:\n        /* \"#utility.yul\":3627:3717   */\n      swap1\n      pop\n        /* \"#utility.yul\":3737:3742   */\n      dup1\n        /* \"#utility.yul\":3766:3772   */\n      dup4\n        /* \"#utility.yul\":3759:3764   */\n      dup3\n        /* \"#utility.yul\":3752:3773   */\n      mstore\n        /* \"#utility.yul\":3800:3804   */\n      0x20\n        /* \"#utility.yul\":3793:3798   */\n      dup3\n        /* \"#utility.yul\":3789:3805   */\n      add\n        /* \"#utility.yul\":3782:3805   */\n      swap1\n      pop\n        /* \"#utility.yul\":3853:3857   */\n      0x20\n        /* \"#utility.yul\":3845:3851   */\n      dup5\n        /* \"#utility.yul\":3841:3858   */\n      mul\n        /* \"#utility.yul\":3833:3839   */\n      dup4\n        /* \"#utility.yul\":3829:3859   */\n      add\n        /* \"#utility.yul\":3882:3885   */\n      dup6\n        /* \"#utility.yul\":3874:3880   */\n      dup2\n        /* \"#utility.yul\":3871:3886   */\n      gt\n        /* \"#utility.yul\":3868:3990   */\n      iszero\n      tag_131\n      jumpi\n        /* \"#utility.yul\":3901:3980   */\n      tag_132\n      tag_73\n      jump\t// in\n    tag_132:\n        /* \"#utility.yul\":3868:3990   */\n    tag_131:\n        /* \"#utility.yul\":4016:4022   */\n      dup4\n        /* \"#utility.yul\":3999:4219   */\n    tag_133:\n        /* \"#utility.yul\":4033:4039   */\n      dup2\n        /* \"#utility.yul\":4028:4031   */\n      dup2\n        /* \"#utility.yul\":4025:4040   */\n      lt\n        /* \"#utility.yul\":3999:4219   */\n      iszero\n      tag_135\n      jumpi\n        /* \"#utility.yul\":4108:4111   */\n      dup1\n        /* \"#utility.yul\":4137:4174   */\n      tag_136\n        /* \"#utility.yul\":4170:4173   */\n      dup9\n        /* \"#utility.yul\":4158:4168   */\n      dup3\n        /* \"#utility.yul\":4137:4174   */\n      tag_63\n      jump\t// in\n    tag_136:\n        /* \"#utility.yul\":4132:4135   */\n      dup5\n        /* \"#utility.yul\":4125:4175   */\n      mstore\n        /* \"#utility.yul\":4204:4208   */\n      0x20\n        /* \"#utility.yul\":4199:4202   */\n      dup5\n        /* \"#utility.yul\":4195:4209   */\n      add\n        /* \"#utility.yul\":4188:4209   */\n      swap4\n      pop\n        /* \"#utility.yul\":4075:4219   */\n      pop\n        /* \"#utility.yul\":4059:4063   */\n      0x20\n        /* \"#utility.yul\":4054:4057   */\n      dup2\n        /* \"#utility.yul\":4050:4064   */\n      add\n        /* \"#utility.yul\":4043:4064   */\n      swap1\n      pop\n        /* \"#utility.yul\":3999:4219   */\n      jump(tag_133)\n    tag_135:\n        /* \"#utility.yul\":4003:4024   */\n      pop\n        /* \"#utility.yul\":3617:4225   */\n      pop\n      pop\n        /* \"#utility.yul\":3515:4225   */\n      swap4\n      swap3\n      pop\n      pop\n      pop\n      jump\t// out\n        /* \"#utility.yul\":4248:4618   */\n    tag_75:\n        /* \"#utility.yul\":4319:4324   */\n      0x00\n        /* \"#utility.yul\":4368:4371   */\n      dup3\n        /* \"#utility.yul\":4361:4365   */\n      0x1f\n        /* \"#utility.yul\":4353:4359   */\n      dup4\n        /* \"#utility.yul\":4349:4366   */\n      add\n        /* \"#utility.yul\":4345:4372   */\n      slt\n        /* \"#utility.yul\":4335:4457   */\n      tag_138\n      jumpi\n        /* \"#utility.yul\":4376:4455   */\n      tag_139\n      tag_68\n      jump\t// in\n    tag_139:\n        /* \"#utility.yul\":4335:4457   */\n    tag_138:\n        /* \"#utility.yul\":4493:4499   */\n      dup2\n        /* \"#utility.yul\":4480:4500   */\n      calldataload\n        /* \"#utility.yul\":4518:4612   */\n      tag_140\n        /* \"#utility.yul\":4608:4611   */\n      dup5\n        /* \"#utility.yul\":4600:4606   */\n      dup3\n        /* \"#utility.yul\":4593:4597   */\n      0x20\n        /* \"#utility.yul\":4585:4591   */\n      dup7\n        /* \"#utility.yul\":4581:4598   */\n      add\n        /* \"#utility.yul\":4518:4612   */\n      tag_74\n      jump\t// in\n    tag_140:\n        /* \"#utility.yul\":4509:4612   */\n      swap2\n      pop\n        /* \"#utility.yul\":4325:4618   */\n      pop\n        /* \"#utility.yul\":4248:4618   */\n      swap3\n      swap2\n      pop\n      pop\n      jump\t// out\n        /* \"#utility.yul\":4624:5163   */\n    tag_22:\n        /* \"#utility.yul\":4708:4714   */\n      0x00\n        /* \"#utility.yul\":4757:4759   */\n      0x20\n        /* \"#utility.yul\":4745:4754   */\n      dup3\n        /* \"#utility.yul\":4736:4743   */\n      dup5\n        /* \"#utility.yul\":4732:4755   */\n      sub\n        /* \"#utility.yul\":4728:4760   */\n      slt\n        /* \"#utility.yul\":4725:4844   */\n      iszero\n      tag_142\n      jumpi\n        /* \"#utility.yul\":4763:4842   */\n      tag_143\n      tag_58\n      jump\t// in\n    tag_143:\n        /* \"#utility.yul\":4725:4844   */\n    tag_142:\n        /* \"#utility.yul\":4911:4912   */\n      0x00\n        /* \"#utility.yul\":4900:4909   */\n      dup3\n        /* \"#utility.yul\":4896:4913   */\n      add\n        /* \"#utility.yul\":4883:4914   */\n      calldataload\n        /* \"#utility.yul\":4941:4959   */\n      0xffffffffffffffff\n        /* \"#utility.yul\":4933:4939   */\n      dup2\n        /* \"#utility.yul\":4930:4960   */\n      gt\n        /* \"#utility.yul\":4927:5044   */\n      iszero\n      tag_144\n      jumpi\n        /* \"#utility.yul\":4963:5042   */\n      tag_145\n      tag_59\n      jump\t// in\n    tag_145:\n        /* \"#utility.yul\":4927:5044   */\n    tag_144:\n        /* \"#utility.yul\":5068:5146   */\n      tag_146\n        /* \"#utility.yul\":5138:5145   */\n      dup5\n        /* \"#utility.yul\":5129:5135   */\n      dup3\n        /* \"#utility.yul\":5118:5127   */\n      dup6\n        /* \"#utility.yul\":5114:5136   */\n      add\n        /* \"#utility.yul\":5068:5146   */\n      tag_75\n      jump\t// in\n    tag_146:\n        /* \"#utility.yul\":5058:5146   */\n      swap2\n      pop\n        /* \"#utility.yul\":4854:5156   */\n      pop\n        /* \"#utility.yul\":4624:5163   */\n      swap3\n      swap2\n      pop\n      pop\n      jump\t// out\n        /* \"#utility.yul\":5169:5283   */\n    tag_76:\n        /* \"#utility.yul\":5236:5242   */\n      0x00\n        /* \"#utility.yul\":5270:5275   */\n      dup2\n        /* \"#utility.yul\":5264:5276   */\n      mload\n        /* \"#utility.yul\":5254:5276   */\n      swap1\n      pop\n        /* \"#utility.yul\":5169:5283   */\n      swap2\n      swap1\n      pop\n      jump\t// out\n        /* \"#utility.yul\":5289:5473   */\n    tag_77:\n        /* \"#utility.yul\":5388:5399   */\n      0x00\n        /* \"#utility.yul\":5422:5428   */\n      dup3\n        /* \"#utility.yul\":5417:5420   */\n      dup3\n        /* \"#utility.yul\":5410:5429   */\n      mstore\n        /* \"#utility.yul\":5462:5466   */\n      0x20\n        /* \"#utility.yul\":5457:5460   */\n      dup3\n        /* \"#utility.yul\":5453:5467   */\n      add\n        /* \"#utility.yul\":5438:5467   */\n      swap1\n      pop\n        /* \"#utility.yul\":5289:5473   */\n      swap3\n      swap2\n      pop\n      pop\n      jump\t// out\n        /* \"#utility.yul\":5479:5611   */\n    tag_78:\n        /* \"#utility.yul\":5546:5550   */\n      0x00\n        /* \"#utility.yul\":5569:5572   */\n      dup2\n        /* \"#utility.yul\":5561:5572   */\n      swap1\n      pop\n        /* \"#utility.yul\":5599:5603   */\n      0x20\n        /* \"#utility.yul\":5594:5597   */\n      dup3\n        /* \"#utility.yul\":5590:5604   */\n      add\n        /* \"#utility.yul\":5582:5604   */\n      swap1\n      pop\n        /* \"#utility.yul\":5479:5611   */\n      swap2\n      swap1\n      pop\n      jump\t// out\n        /* \"#utility.yul\":5617:5725   */\n    tag_79:\n        /* \"#utility.yul\":5694:5718   */\n      tag_151\n        /* \"#utility.yul\":5712:5717   */\n      dup2\n        /* \"#utility.yul\":5694:5718   */\n      tag_64\n      jump\t// in\n    tag_151:\n        /* \"#utility.yul\":5689:5692   */\n      dup3\n        /* \"#utility.yul\":5682:5719   */\n      mstore\n        /* \"#utility.yul\":5617:5725   */\n      pop\n      pop\n      jump\t// out\n        /* \"#utility.yul\":5731:5910   */\n    tag_80:\n        /* \"#utility.yul\":5800:5810   */\n      0x00\n        /* \"#utility.yul\":5821:5867   */\n      tag_153\n        /* \"#utility.yul\":5863:5866   */\n      dup4\n        /* \"#utility.yul\":5855:5861   */\n      dup4\n        /* \"#utility.yul\":5821:5867   */\n      tag_79\n      jump\t// in\n    tag_153:\n        /* \"#utility.yul\":5899:5903   */\n      0x20\n        /* \"#utility.yul\":5894:5897   */\n      dup4\n        /* \"#utility.yul\":5890:5904   */\n      add\n        /* \"#utility.yul\":5876:5904   */\n      swap1\n      pop\n        /* \"#utility.yul\":5731:5910   */\n      swap3\n      swap2\n      pop\n      pop\n      jump\t// out\n        /* \"#utility.yul\":5916:6029   */\n    tag_81:\n        /* \"#utility.yul\":5986:5990   */\n      0x00\n        /* \"#utility.yul\":6018:6022   */\n      0x20\n        /* \"#utility.yul\":6013:6016   */\n      dup3\n        /* \"#utility.yul\":6009:6023   */\n      add\n        /* \"#utility.yul\":6001:6023   */\n      swap1\n      pop\n        /* \"#utility.yul\":5916:6029   */\n      swap2\n      swap1\n      pop\n      jump\t// out\n        /* \"#utility.yul\":6065:6797   */\n    tag_82:\n        /* \"#utility.yul\":6184:6187   */\n      0x00\n        /* \"#utility.yul\":6213:6267   */\n      tag_156\n        /* \"#utility.yul\":6261:6266   */\n      dup3\n        /* \"#utility.yul\":6213:6267   */\n      tag_76\n      jump\t// in\n    tag_156:\n        /* \"#utility.yul\":6283:6369   */\n      tag_157\n        /* \"#utility.yul\":6362:6368   */\n      dup2\n        /* \"#utility.yul\":6357:6360   */\n      dup6\n        /* \"#utility.yul\":6283:6369   */\n      tag_77\n      jump\t// in\n    tag_157:\n        /* \"#utility.yul\":6276:6369   */\n      swap4\n      pop\n        /* \"#utility.yul\":6393:6449   */\n      tag_158\n        /* \"#utility.yul\":6443:6448   */\n      dup4\n        /* \"#utility.yul\":6393:6449   */\n      tag_78\n      jump\t// in\n    tag_158:\n        /* \"#utility.yul\":6472:6479   */\n      dup1\n        /* \"#utility.yul\":6503:6504   */\n      0x00\n        /* \"#utility.yul\":6488:6772   */\n    tag_159:\n        /* \"#utility.yul\":6513:6519   */\n      dup4\n        /* \"#utility.yul\":6510:6511   */\n      dup2\n        /* \"#utility.yul\":6507:6520   */\n      lt\n        /* \"#utility.yul\":6488:6772   */\n      iszero\n      tag_161\n      jumpi\n        /* \"#utility.yul\":6589:6595   */\n      dup2\n        /* \"#utility.yul\":6583:6596   */\n      mload\n        /* \"#utility.yul\":6616:6679   */\n      tag_162\n        /* \"#utility.yul\":6675:6678   */\n      dup9\n        /* \"#utility.yul\":6660:6673   */\n      dup3\n        /* \"#utility.yul\":6616:6679   */\n      tag_80\n      jump\t// in\n    tag_162:\n        /* \"#utility.yul\":6609:6679   */\n      swap8\n      pop\n        /* \"#utility.yul\":6702:6762   */\n      tag_163\n        /* \"#utility.yul\":6755:6761   */\n      dup4\n        /* \"#utility.yul\":6702:6762   */\n      tag_81\n      jump\t// in\n    tag_163:\n        /* \"#utility.yul\":6692:6762   */\n      swap3\n      pop\n        /* \"#utility.yul\":6548:6772   */\n      pop\n        /* \"#utility.yul\":6535:6536   */\n      0x01\n        /* \"#utility.yul\":6532:6533   */\n      dup2\n        /* \"#utility.yul\":6528:6537   */\n      add\n        /* \"#utility.yul\":6523:6537   */\n      swap1\n      pop\n        /* \"#utility.yul\":6488:6772   */\n      jump(tag_159)\n    tag_161:\n        /* \"#utility.yul\":6492:6506   */\n      pop\n        /* \"#utility.yul\":6788:6791   */\n      dup6\n        /* \"#utility.yul\":6781:6791   */\n      swap4\n      pop\n        /* \"#utility.yul\":6189:6797   */\n      pop\n      pop\n      pop\n        /* \"#utility.yul\":6065:6797   */\n      swap3\n      swap2\n      pop\n      pop\n      jump\t// out\n        /* \"#utility.yul\":6803:7176   */\n    tag_25:\n        /* \"#utility.yul\":6946:6950   */\n      0x00\n        /* \"#utility.yul\":6984:6986   */\n      0x20\n        /* \"#utility.yul\":6973:6982   */\n      dup3\n        /* \"#utility.yul\":6969:6987   */\n      add\n        /* \"#utility.yul\":6961:6987   */\n      swap1\n      pop\n        /* \"#utility.yul\":7033:7042   */\n      dup2\n        /* \"#utility.yul\":7027:7031   */\n      dup2\n        /* \"#utility.yul\":7023:7043   */\n      sub\n        /* \"#utility.yul\":7019:7020   */\n      0x00\n        /* \"#utility.yul\":7008:7017   */\n      dup4\n        /* \"#utility.yul\":7004:7021   */\n      add\n        /* \"#utility.yul\":6997:7044   */\n      mstore\n        /* \"#utility.yul\":7061:7169   */\n      tag_165\n        /* \"#utility.yul\":7164:7168   */\n      dup2\n        /* \"#utility.yul\":7155:7161   */\n      dup5\n        /* \"#utility.yul\":7061:7169   */\n      tag_82\n      jump\t// in\n    tag_165:\n        /* \"#utility.yul\":7053:7169   */\n      swap1\n      pop\n        /* \"#utility.yul\":6803:7176   */\n      swap3\n      swap2\n      pop\n      pop\n      jump\t// out\n        /* \"#utility.yul\":7182:7362   */\n    tag_33:\n        /* \"#utility.yul\":7230:7307   */\n      0x4e487b7100000000000000000000000000000000000000000000000000000000\n        /* \"#utility.yul\":7227:7228   */\n      0x00\n        /* \"#utility.yul\":7220:7308   */\n      mstore\n        /* \"#utility.yul\":7327:7331   */\n      0x32\n        /* \"#utility.yul\":7324:7325   */\n      0x04\n        /* \"#utility.yul\":7317:7332   */\n      mstore\n        /* \"#utility.yul\":7351:7355   */\n      0x24\n        /* \"#utility.yul\":7348:7349   */\n      0x00\n        /* \"#utility.yul\":7341:7356   */\n      revert\n\n    auxdata: 0xa26469706673582212203720218b9f4cffc5e4d70ff8dde197e702b2d91e218c36191f8c14b714ba81dd64736f6c63430008120033\n}\n",
				"bytecode": {
					"linkReferences": {},
					"object": "608060405234801561001057600080fd5b5061071b806100206000396000f3fe608060405234801561001057600080fd5b506004361061004c5760003560e01c80633c7e7d281461005157806354353f2f1461008157806371e5ee5f1461008b578063c6833799146100bb575b600080fd5b61006b6004803603810190610066919061037a565b6100eb565b60405161007891906103c0565b60405180910390f35b610089610103565b005b6100a560048036038101906100a09190610407565b6101fe565b6040516100b291906103c0565b60405180910390f35b6100d560048036038101906100d0919061058d565b610222565b6040516100e29190610694565b60405180910390f35b60016020528060005260406000206000915090505481565b6000600567ffffffffffffffff8111156101205761011f61044a565b5b60405190808252806020026020018201604052801561014e5781602001602082028036833780820191505090505b509050600181600081518110610167576101666106b6565b5b602002602001018181525050600281600181518110610189576101886106b6565b5b6020026020010181815250506003816002815181106101ab576101aa6106b6565b5b6020026020010181815250506004816003815181106101cd576101cc6106b6565b5b6020026020010181815250506005816004815181106101ef576101ee6106b6565b5b60200260200101818152505050565b6000818154811061020e57600080fd5b906000526020600020016000915090505481565b60606000825167ffffffffffffffff8111156102415761024061044a565b5b60405190808252806020026020018201604052801561026f5781602001602082028036833780820191505090505b509050600083518110156103005760016000858381518110610294576102936106b6565b5b602002602001015173ffffffffffffffffffffffffffffffffffffffff1673ffffffffffffffffffffffffffffffffffffffff168152602001908152602001600020548282815181106102ea576102e96106b6565b5b6020026020010181815250508192505050610303565b50505b919050565b6000604051905090565b600080fd5b600080fd5b600073ffffffffffffffffffffffffffffffffffffffff82169050919050565b60006103478261031c565b9050919050565b6103578161033c565b811461036257600080fd5b50565b6000813590506103748161034e565b92915050565b6000602082840312156103905761038f610312565b5b600061039e84828501610365565b91505092915050565b6000819050919050565b6103ba816103a7565b82525050565b60006020820190506103d560008301846103b1565b92915050565b6103e4816103a7565b81146103ef57600080fd5b50565b600081359050610401816103db565b92915050565b60006020828403121561041d5761041c610312565b5b600061042b848285016103f2565b91505092915050565b600080fd5b6000601f19601f8301169050919050565b7f4e487b7100000000000000000000000000000000000000000000000000000000600052604160045260246000fd5b61048282610439565b810181811067ffffffffffffffff821117156104a1576104a061044a565b5b80604052505050565b60006104b4610308565b90506104c08282610479565b919050565b600067ffffffffffffffff8211156104e0576104df61044a565b5b602082029050602081019050919050565b600080fd5b6000610509610504846104c5565b6104aa565b9050808382526020820190506020840283018581111561052c5761052b6104f1565b5b835b8181101561055557806105418882610365565b84526020840193505060208101905061052e565b5050509392505050565b600082601f83011261057457610573610434565b5b81356105848482602086016104f6565b91505092915050565b6000602082840312156105a3576105a2610312565b5b600082013567ffffffffffffffff8111156105c1576105c0610317565b5b6105cd8482850161055f565b91505092915050565b600081519050919050565b600082825260208201905092915050565b6000819050602082019050919050565b61060b816103a7565b82525050565b600061061d8383610602565b60208301905092915050565b6000602082019050919050565b6000610641826105d6565b61064b81856105e1565b9350610656836105f2565b8060005b8381101561068757815161066e8882610611565b975061067983610629565b92505060018101905061065a565b5085935050505092915050565b600060208201905081810360008301526106ae8184610636565b905092915050565b7f4e487b7100000000000000000000000000000000000000000000000000000000600052603260045260246000fdfea26469706673582212203720218b9f4cffc5e4d70ff8dde197e702b2d91e218c36191f8c14b714ba81dd64736f6c63430008120033",
					"opcodes": "PUSH1 0x80 PUSH1 0x40 MSTORE CALLVALUE DUP1 ISZERO PUSH2 0x10 JUMPI PUSH1 0x0 DUP1 REVERT JUMPDEST POP PUSH2 0x71B DUP1 PUSH2 0x20 PUSH1 0x0 CODECOPY PUSH1 0x0 RETURN INVALID PUSH1 0x80 PUSH1 0x40 MSTORE CALLVALUE DUP1 ISZERO PUSH2 0x10 JUMPI PUSH1 0x0 DUP1 REVERT JUMPDEST POP PUSH1 0x4 CALLDATASIZE LT PUSH2 0x4C JUMPI PUSH1 0x0 CALLDATALOAD PUSH1 0xE0 SHR DUP1 PUSH4 0x3C7E7D28 EQ PUSH2 0x51 JUMPI DUP1 PUSH4 0x54353F2F EQ PUSH2 0x81 JUMPI DUP1 PUSH4 0x71E5EE5F EQ PUSH2 0x8B JUMPI DUP1 PUSH4 0xC6833799 EQ PUSH2 0xBB JUMPI JUMPDEST PUSH1 0x0 DUP1 REVERT JUMPDEST PUSH2 0x6B PUSH1 0x4 DUP1 CALLDATASIZE SUB DUP2 ADD SWAP1 PUSH2 0x66 SWAP2 SWAP1 PUSH2 0x37A JUMP JUMPDEST PUSH2 0xEB JUMP JUMPDEST PUSH1 0x40 MLOAD PUSH2 0x78 SWAP2 SWAP1 PUSH2 0x3C0 JUMP JUMPDEST PUSH1 0x40 MLOAD DUP1 SWAP2 SUB SWAP1 RETURN JUMPDEST PUSH2 0x89 PUSH2 0x103 JUMP JUMPDEST STOP JUMPDEST PUSH2 0xA5 PUSH1 0x4 DUP1 CALLDATASIZE SUB DUP2 ADD SWAP1 PUSH2 0xA0 SWAP2 SWAP1 PUSH2 0x407 JUMP JUMPDEST PUSH2 0x1FE JUMP JUMPDEST PUSH1 0x40 MLOAD PUSH2 0xB2 SWAP2 SWAP1 PUSH2 0x3C0 JUMP JUMPDEST PUSH1 0x40 MLOAD DUP1 SWAP2 SUB SWAP1 RETURN JUMPDEST PUSH2 0xD5 PUSH1 0x4 DUP1 CALLDATASIZE SUB DUP2 ADD SWAP1 PUSH2 0xD0 SWAP2 SWAP1 PUSH2 0x58D JUMP JUMPDEST PUSH2 0x222 JUMP JUMPDEST PUSH1 0x40 MLOAD PUSH2 0xE2 SWAP2 SWAP1 PUSH2 0x694 JUMP JUMPDEST PUSH1 0x40 MLOAD DUP1 SWAP2 SUB SWAP1 RETURN JUMPDEST PUSH1 0x1 PUSH1 0x20 MSTORE DUP1 PUSH1 0x0 MSTORE PUSH1 0x40 PUSH1 0x0 KECCAK256 PUSH1 0x0 SWAP2 POP SWAP1 POP SLOAD DUP2 JUMP JUMPDEST PUSH1 0x0 PUSH1 0x5 PUSH8 0xFFFFFFFFFFFFFFFF DUP2 GT ISZERO PUSH2 0x120 JUMPI PUSH2 0x11F PUSH2 0x44A JUMP JUMPDEST JUMPDEST PUSH1 0x40 MLOAD SWAP1 DUP1 DUP3 MSTORE DUP1 PUSH1 0x20 MUL PUSH1 0x20 ADD DUP3 ADD PUSH1 0x40 MSTORE DUP1 ISZERO PUSH2 0x14E JUMPI DUP2 PUSH1 0x20 ADD PUSH1 0x20 DUP3 MUL DUP1 CALLDATASIZE DUP4 CALLDATACOPY DUP1 DUP3 ADD SWAP2 POP POP SWAP1 POP JUMPDEST POP SWAP1 POP PUSH1 0x1 DUP2 PUSH1 0x0 DUP2 MLOAD DUP2 LT PUSH2 0x167 JUMPI PUSH2 0x166 PUSH2 0x6B6 JUMP JUMPDEST JUMPDEST PUSH1 0x20 MUL PUSH1 0x20 ADD ADD DUP2 DUP2 MSTORE POP POP PUSH1 0x2 DUP2 PUSH1 0x1 DUP2 MLOAD DUP2 LT PUSH2 0x189 JUMPI PUSH2 0x188 PUSH2 0x6B6 JUMP JUMPDEST JUMPDEST PUSH1 0x20 MUL PUSH1 0x20 ADD ADD DUP2 DUP2 MSTORE POP POP PUSH1 0x3 DUP2 PUSH1 0x2 DUP2 MLOAD DUP2 LT PUSH2 0x1AB JUMPI PUSH2 0x1AA PUSH2 0x6B6 JUMP JUMPDEST JUMPDEST PUSH1 0x20 MUL PUSH1 0x20 ADD ADD DUP2 DUP2 MSTORE POP POP PUSH1 0x4 DUP2 PUSH1 0x3 DUP2 MLOAD DUP2 LT PUSH2 0x1CD JUMPI PUSH2 0x1CC PUSH2 0x6B6 JUMP JUMPDEST JUMPDEST PUSH1 0x20 MUL PUSH1 0x20 ADD ADD DUP2 DUP2 MSTORE POP POP PUSH1 0x5 DUP2 PUSH1 0x4 DUP2 MLOAD DUP2 LT PUSH2 0x1EF JUMPI PUSH2 0x1EE PUSH2 0x6B6 JUMP JUMPDEST JUMPDEST PUSH1 0x20 MUL PUSH1 0x20 ADD ADD DUP2 DUP2 MSTORE POP POP POP JUMP JUMPDEST PUSH1 0x0 DUP2 DUP2 SLOAD DUP2 LT PUSH2 0x20E JUMPI PUSH1 0x0 DUP1 REVERT JUMPDEST SWAP1 PUSH1 0x0 MSTORE PUSH1 0x20 PUSH1 0x0 KECCAK256 ADD PUSH1 0x0 SWAP2 POP SWAP1 POP SLOAD DUP2 JUMP JUMPDEST PUSH1 0x60 PUSH1 0x0 DUP3 MLOAD PUSH8 0xFFFFFFFFFFFFFFFF DUP2 GT ISZERO PUSH2 0x241 JUMPI PUSH2 0x240 PUSH2 0x44A JUMP JUMPDEST JUMPDEST PUSH1 0x40 MLOAD SWAP1 DUP1 DUP3 MSTORE DUP1 PUSH1 0x20 MUL PUSH1 0x20 ADD DUP3 ADD PUSH1 0x40 MSTORE DUP1 ISZERO PUSH2 0x26F JUMPI DUP2 PUSH1 0x20 ADD PUSH1 0x20 DUP3 MUL DUP1 CALLDATASIZE DUP4 CALLDATACOPY DUP1 DUP3 ADD SWAP2 POP POP SWAP1 POP JUMPDEST POP SWAP1 POP PUSH1 0x0 DUP4 MLOAD DUP2 LT ISZERO PUSH2 0x300 JUMPI PUSH1 0x1 PUSH1 0x0 DUP6 DUP4 DUP2 MLOAD DUP2 LT PUSH2 0x294 JUMPI PUSH2 0x293 PUSH2 0x6B6 JUMP JUMPDEST JUMPDEST PUSH1 0x20 MUL PUSH1 0x20 ADD ADD MLOAD PUSH20 0xFFFFFFFFFFFFFFFFFFFFFFFFFFFFFFFFFFFFFFFF AND PUSH20 0xFFFFFFFFFFFFFFFFFFFFFFFFFFFFFFFFFFFFFFFF AND DUP2 MSTORE PUSH1 0x20 ADD SWAP1 DUP2 MSTORE PUSH1 0x20 ADD PUSH1 0x0 KECCAK256 SLOAD DUP3 DUP3 DUP2 MLOAD DUP2 LT PUSH2 0x2EA JUMPI PUSH2 0x2E9 PUSH2 0x6B6 JUMP JUMPDEST JUMPDEST PUSH1 0x20 MUL PUSH1 0x20 ADD ADD DUP2 DUP2 MSTORE POP POP DUP2 SWAP3 POP POP POP PUSH2 0x303 JUMP JUMPDEST POP POP JUMPDEST SWAP2 SWAP1 POP JUMP JUMPDEST PUSH1 0x0 PUSH1 0x40 MLOAD SWAP1 POP SWAP1 JUMP JUMPDEST PUSH1 0x0 DUP1 REVERT JUMPDEST PUSH1 0x0 DUP1 REVERT JUMPDEST PUSH1 0x0 PUSH20 0xFFFFFFFFFFFFFFFFFFFFFFFFFFFFFFFFFFFFFFFF DUP3 AND SWAP1 POP SWAP2 SWAP1 POP JUMP JUMPDEST PUSH1 0x0 PUSH2 0x347 DUP3 PUSH2 0x31C JUMP JUMPDEST SWAP1 POP SWAP2 SWAP1 POP JUMP JUMPDEST PUSH2 0x357 DUP2 PUSH2 0x33C JUMP JUMPDEST DUP2 EQ PUSH2 0x362 JUMPI PUSH1 0x0 DUP1 REVERT JUMPDEST POP JUMP JUMPDEST PUSH1 0x0 DUP2 CALLDATALOAD SWAP1 POP PUSH2 0x374 DUP2 PUSH2 0x34E JUMP JUMPDEST SWAP3 SWAP2 POP POP JUMP JUMPDEST PUSH1 0x0 PUSH1 0x20 DUP3 DUP5 SUB SLT ISZERO PUSH2 0x390 JUMPI PUSH2 0x38F PUSH2 0x312 JUMP JUMPDEST JUMPDEST PUSH1 0x0 PUSH2 0x39E DUP5 DUP3 DUP6 ADD PUSH2 0x365 JUMP JUMPDEST SWAP2 POP POP SWAP3 SWAP2 POP POP JUMP JUMPDEST PUSH1 0x0 DUP2 SWAP1 POP SWAP2 SWAP1 POP JUMP JUMPDEST PUSH2 0x3BA DUP2 PUSH2 0x3A7 JUMP JUMPDEST DUP3 MSTORE POP POP JUMP JUMPDEST PUSH1 0x0 PUSH1 0x20 DUP3 ADD SWAP1 POP PUSH2 0x3D5 PUSH1 0x0 DUP4 ADD DUP5 PUSH2 0x3B1 JUMP JUMPDEST SWAP3 SWAP2 POP POP JUMP JUMPDEST PUSH2 0x3E4 DUP2 PUSH2 0x3A7 JUMP JUMPDEST DUP2 EQ PUSH2 0x3EF JUMPI PUSH1 0x0 DUP1 REVERT JUMPDEST POP JUMP JUMPDEST PUSH1 0x0 DUP2 CALLDATALOAD SWAP1 POP PUSH2 0x401 DUP2 PUSH2 0x3DB JUMP JUMPDEST SWAP3 SWAP2 POP POP JUMP JUMPDEST PUSH1 0x0 PUSH1 0x20 DUP3 DUP5 SUB SLT ISZERO PUSH2 0x41D JUMPI PUSH2 0x41C PUSH2 0x312 JUMP JUMPDEST JUMPDEST PUSH1 0x0 PUSH2 0x42B DUP5 DUP3 DUP6 ADD PUSH2 0x3F2 JUMP JUMPDEST SWAP2 POP POP SWAP3 SWAP2 POP POP JUMP JUMPDEST PUSH1 0x0 DUP1 REVERT JUMPDEST PUSH1 0x0 PUSH1 0x1F NOT PUSH1 0x1F DUP4 ADD AND SWAP1 POP SWAP2 SWAP1 POP JUMP JUMPDEST PUSH32 0x4E487B7100000000000000000000000000000000000000000000000000000000 PUSH1 0x0 MSTORE PUSH1 0x41 PUSH1 0x4 MSTORE PUSH1 0x24 PUSH1 0x0 REVERT JUMPDEST PUSH2 0x482 DUP3 PUSH2 0x439 JUMP JUMPDEST DUP2 ADD DUP2 DUP2 LT PUSH8 0xFFFFFFFFFFFFFFFF DUP3 GT OR ISZERO PUSH2 0x4A1 JUMPI PUSH2 0x4A0 PUSH2 0x44A JUMP JUMPDEST JUMPDEST DUP1 PUSH1 0x40 MSTORE POP POP POP JUMP JUMPDEST PUSH1 0x0 PUSH2 0x4B4 PUSH2 0x308 JUMP JUMPDEST SWAP1 POP PUSH2 0x4C0 DUP3 DUP3 PUSH2 0x479 JUMP JUMPDEST SWAP2 SWAP1 POP JUMP JUMPDEST PUSH1 0x0 PUSH8 0xFFFFFFFFFFFFFFFF DUP3 GT ISZERO PUSH2 0x4E0 JUMPI PUSH2 0x4DF PUSH2 0x44A JUMP JUMPDEST JUMPDEST PUSH1 0x20 DUP3 MUL SWAP1 POP PUSH1 0x20 DUP2 ADD SWAP1 POP SWAP2 SWAP1 POP JUMP JUMPDEST PUSH1 0x0 DUP1 REVERT JUMPDEST PUSH1 0x0 PUSH2 0x509 PUSH2 0x504 DUP5 PUSH2 0x4C5 JUMP JUMPDEST PUSH2 0x4AA JUMP JUMPDEST SWAP1 POP DUP1 DUP4 DUP3 MSTORE PUSH1 0x20 DUP3 ADD SWAP1 POP PUSH1 0x20 DUP5 MUL DUP4 ADD DUP6 DUP2 GT ISZERO PUSH2 0x52C JUMPI PUSH2 0x52B PUSH2 0x4F1 JUMP JUMPDEST JUMPDEST DUP4 JUMPDEST DUP2 DUP2 LT ISZERO PUSH2 0x555 JUMPI DUP1 PUSH2 0x541 DUP9 DUP3 PUSH2 0x365 JUMP JUMPDEST DUP5 MSTORE PUSH1 0x20 DUP5 ADD SWAP4 POP POP PUSH1 0x20 DUP2 ADD SWAP1 POP PUSH2 0x52E JUMP JUMPDEST POP POP POP SWAP4 SWAP3 POP POP POP JUMP JUMPDEST PUSH1 0x0 DUP3 PUSH1 0x1F DUP4 ADD SLT PUSH2 0x574 JUMPI PUSH2 0x573 PUSH2 0x434 JUMP JUMPDEST JUMPDEST DUP2 CALLDATALOAD PUSH2 0x584 DUP5 DUP3 PUSH1 0x20 DUP7 ADD PUSH2 0x4F6 JUMP JUMPDEST SWAP2 POP POP SWAP3 SWAP2 POP POP JUMP JUMPDEST PUSH1 0x0 PUSH1 0x20 DUP3 DUP5 SUB SLT ISZERO PUSH2 0x5A3 JUMPI PUSH2 0x5A2 PUSH2 0x312 JUMP JUMPDEST JUMPDEST PUSH1 0x0 DUP3 ADD CALLDATALOAD PUSH8 0xFFFFFFFFFFFFFFFF DUP2 GT ISZERO PUSH2 0x5C1 JUMPI PUSH2 0x5C0 PUSH2 0x317 JUMP JUMPDEST JUMPDEST PUSH2 0x5CD DUP5 DUP3 DUP6 ADD PUSH2 0x55F JUMP JUMPDEST SWAP2 POP POP SWAP3 SWAP2 POP POP JUMP JUMPDEST PUSH1 0x0 DUP2 MLOAD SWAP1 POP SWAP2 SWAP1 POP JUMP JUMPDEST PUSH1 0x0 DUP3 DUP3 MSTORE PUSH1 0x20 DUP3 ADD SWAP1 POP SWAP3 SWAP2 POP POP JUMP JUMPDEST PUSH1 0x0 DUP2 SWAP1 POP PUSH1 0x20 DUP3 ADD SWAP1 POP SWAP2 SWAP1 POP JUMP JUMPDEST PUSH2 0x60B DUP2 PUSH2 0x3A7 JUMP JUMPDEST DUP3 MSTORE POP POP JUMP JUMPDEST PUSH1 0x0 PUSH2 0x61D DUP4 DUP4 PUSH2 0x602 JUMP JUMPDEST PUSH1 0x20 DUP4 ADD SWAP1 POP SWAP3 SWAP2 POP POP JUMP JUMPDEST PUSH1 0x0 PUSH1 0x20 DUP3 ADD SWAP1 POP SWAP2 SWAP1 POP JUMP JUMPDEST PUSH1 0x0 PUSH2 0x641 DUP3 PUSH2 0x5D6 JUMP JUMPDEST PUSH2 0x64B DUP2 DUP6 PUSH2 0x5E1 JUMP JUMPDEST SWAP4 POP PUSH2 0x656 DUP4 PUSH2 0x5F2 JUMP JUMPDEST DUP1 PUSH1 0x0 JUMPDEST DUP4 DUP2 LT ISZERO PUSH2 0x687 JUMPI DUP2 MLOAD PUSH2 0x66E DUP9 DUP3 PUSH2 0x611 JUMP JUMPDEST SWAP8 POP PUSH2 0x679 DUP4 PUSH2 0x629 JUMP JUMPDEST SWAP3 POP POP PUSH1 0x1 DUP2 ADD SWAP1 POP PUSH2 0x65A JUMP JUMPDEST POP DUP6 SWAP4 POP POP POP POP SWAP3 SWAP2 POP POP JUMP JUMPDEST PUSH1 0x0 PUSH1 0x20 DUP3 ADD SWAP1 POP DUP2 DUP2 SUB PUSH1 0x0 DUP4 ADD MSTORE PUSH2 0x6AE DUP2 DUP5 PUSH2 0x636 JUMP JUMPDEST SWAP1 POP SWAP3 SWAP2 POP POP JUMP JUMPDEST PUSH32 0x4E487B7100000000000000000000000000000000000000000000000000000000 PUSH1 0x0 MSTORE PUSH1 0x32 PUSH1 0x4 MSTORE PUSH1 0x24 PUSH1 0x0 REVERT INVALID LOG2 PUSH5 0x6970667358 0x22 SLT KECCAK256 CALLDATACOPY KECCAK256 0x21 DUP12 SWAP16 0x4C SELFDESTRUCT 0xC5 0xE4 0xD7 0xF 0xF8 0xDD 0xE1 SWAP8 0xE7 MUL 0xB2 0xD9 0x1E 0x21 DUP13 CALLDATASIZE NOT 0x1F DUP13 EQ 0xB7 EQ 0xBA DUP2 0xDD PUSH5 0x736F6C6343 STOP ADDMOD SLT STOP CALLER "
				},
				"gasEstimates": {
					"creation": {
						"codeDepositCost": "363800",
						"executionCost": "399",
						"totalCost": "364199"
					},
					"external": {
						"addressToAmount(address)": "2792",
						"arr(uint256)": "infinite",
						"example()": "665",
						"getBalancesOfMultipleUsers(address[])": "infinite"
					}
				},
				"methodIdentifiers": {
					"addressToAmount(address)": "3c7e7d28",
					"arr(uint256)": "71e5ee5f",
					"example()": "54353f2f",
					"getBalancesOfMultipleUsers(address[])": "c6833799"
				}
			},
			"storageLayout": {
				"storage": [
					{
						"astId": 4,
						"contract": "daulat/arrayContract.sol:ArrayContract",
						"label": "arr",
						"offset": 0,
						"slot": "0",
						"type": "t_array(t_uint256)dyn_storage"
					},
					{
						"astId": 8,
						"contract": "daulat/arrayContract.sol:ArrayContract",
						"label": "addressToAmount",
						"offset": 0,
						"slot": "1",
						"type": "t_mapping(t_address,t_uint256)"
					}
				],
				"types": {
					"t_address": {
						"encoding": "inplace",
						"label": "address",
						"numberOfBytes": "20"
					},
					"t_array(t_uint256)dyn_storage": {
						"base": "t_uint256",
						"encoding": "dynamic_array",
						"label": "uint256[]",
						"numberOfBytes": "32"
					},
					"t_mapping(t_address,t_uint256)": {
						"encoding": "mapping",
						"key": "t_address",
						"label": "mapping(address => uint256)",
						"numberOfBytes": "32",
						"value": "t_uint256"
					},
					"t_uint256": {
						"encoding": "inplace",
						"label": "uint256",
						"numberOfBytes": "32"
					}
				}
			},
			"userdoc": {
				"kind": "user",
				"methods": {},
				"version": 1
			}
		}
	}
}